{
  "address": "0x478c1d7bd8f46bbd74e9d04aa287921bd6130d3f",
  "abi": [
    {
      "type": "constructor",
      "inputs": [
        {
          "name": "_maxCapacity",
          "type": "uint256",
          "internalType": "uint256"
        },
        {
          "name": "_refillRate",
          "type": "uint256",
          "internalType": "uint256"
        }
      ],
      "stateMutability": "nonpayable"
    },
    {
      "type": "fallback",
      "stateMutability": "payable"
    },
    {
      "type": "receive",
      "stateMutability": "payable"
    },
    {
      "type": "function",
      "name": "availableCapacity",
      "inputs": [],
      "outputs": [
        {
          "name": "",
          "type": "uint256",
          "internalType": "uint256"
        }
      ],
      "stateMutability": "view"
    },
    {
      "type": "function",
      "name": "borrow",
      "inputs": [
        {
          "name": "amount",
          "type": "uint256",
          "internalType": "uint256"
        }
      ],
      "outputs": [],
      "stateMutability": "nonpayable"
    },
    {
      "type": "function",
      "name": "capacity",
      "inputs": [],
      "outputs": [
        {
          "name": "",
          "type": "uint256",
          "internalType": "uint256"
        }
      ],
      "stateMutability": "view"
    },
    {
      "type": "function",
      "name": "lastUpdate",
      "inputs": [],
      "outputs": [
        {
          "name": "",
          "type": "uint256",
          "internalType": "uint256"
        }
      ],
      "stateMutability": "view"
    },
    {
      "type": "function",
      "name": "maxCapacity",
      "inputs": [],
      "outputs": [
        {
          "name": "",
          "type": "uint256",
          "internalType": "uint256"
        }
      ],
      "stateMutability": "view"
    },
    {
      "type": "function",
      "name": "previewBorrow",
      "inputs": [
        {
          "name": "amount",
          "type": "uint256",
          "internalType": "uint256"
        }
      ],
      "outputs": [
        {
          "name": "allowed",
          "type": "bool",
          "internalType": "bool"
        },
        {
          "name": "availableBefore",
          "type": "uint256",
          "internalType": "uint256"
        },
        {
          "name": "remainingAfter",
          "type": "uint256",
          "internalType": "uint256"
        }
      ],
      "stateMutability": "view"
    },
    {
      "type": "function",
      "name": "refillRate",
      "inputs": [],
      "outputs": [
        {
          "name": "",
          "type": "uint256",
          "internalType": "uint256"
        }
      ],
      "stateMutability": "view"
    },
    {
      "type": "function",
      "name": "secondsUntilAvailable",
      "inputs": [
        {
          "name": "amount",
          "type": "uint256",
          "internalType": "uint256"
        }
      ],
      "outputs": [
        {
          "name": "",
          "type": "uint256",
          "internalType": "uint256"
        }
      ],
      "stateMutability": "view"
    },
    {
      "type": "function",
      "name": "secondsUntilFull",
      "inputs": [],
      "outputs": [
        {
          "name": "",
          "type": "uint256",
          "internalType": "uint256"
        }
      ],
      "stateMutability": "view"
    },
    {
      "type": "event",
      "name": "BorrowExecuted",
      "inputs": [
        {
          "name": "account",
          "type": "address",
          "indexed": true,
          "internalType": "address"
        },
        {
          "name": "amount",
          "type": "uint256",
          "indexed": false,
          "internalType": "uint256"
        },
        {
          "name": "capacityAfter",
          "type": "uint256",
          "indexed": false,
          "internalType": "uint256"
        }
      ],
      "anonymous": false
    },
    {
      "type": "error",
      "name": "EtherNotAccepted",
      "inputs": []
    },
    {
      "type": "error",
      "name": "ExceedsBurstCapacity",
      "inputs": [
        {
          "name": "requested",
          "type": "uint256",
          "internalType": "uint256"
        },
        {
          "name": "maxCapacity",
          "type": "uint256",
          "internalType": "uint256"
        }
      ]
    },
    {
      "type": "error",
      "name": "InvalidAmount",
      "inputs": []
    },
    {
      "type": "error",
      "name": "InvalidConfig",
      "inputs": []
    },
    {
      "type": "error",
      "name": "RateLimited",
      "inputs": [
        {
          "name": "requested",
          "type": "uint256",
          "internalType": "uint256"
        },
        {
          "name": "available",
          "type": "uint256",
          "internalType": "uint256"
        }
      ]
    }
  ],
  "args": [
    "1000000",
    "277"
  ],
  "bytecode": "0x60c060405234801561000f575f5ffd5b5060405161080a38038061080a83398101604081905261002e9161006a565b811580610039575080155b15610057576040516306b7c75960e31b815260040160405180910390fd5b608082905260a0525f554260015561008c565b5f5f6040838503121561007b575f5ffd5b505080516020909101519092909150565b60805160a0516106fc61010e5f395f818160f80152818161026f0152818161031b0152818161046e01526104e401525f818161012b0152818161021401528181610247015281816102dd01528181610383015281816103d2015281816103fb01528181610445015281816104b80152818161053f015261057b01526106fc5ff3fe608060405260043610610089575f3560e01c806367d4d0021161005857806367d4d0021461016157806378007e2314610180578063a21bc3fb146101bc578063c0463711146101d0578063c5ebeaec146101e5576100a7565b80631fb6f17a146100c0578063435635a1146100e757806359b6a0c91461011a5780635cfc1a511461014d576100a7565b366100a757604051630dccd20d60e21b815260040160405180910390fd5b604051630dccd20d60e21b815260040160405180910390fd5b3480156100cb575f5ffd5b506100d4610206565b6040519081526020015b60405180910390f35b3480156100f2575f5ffd5b506100d47f000000000000000000000000000000000000000000000000000000000000000081565b348015610125575f5ffd5b506100d47f000000000000000000000000000000000000000000000000000000000000000081565b348015610158575f5ffd5b506100d45f5481565b34801561016c575f5ffd5b506100d461017b366004610639565b6102b5565b34801561018b575f5ffd5b5061019f61019a366004610639565b610362565b6040805193151584526020840192909252908201526060016100de565b3480156101c7575f5ffd5b506100d46103cf565b3480156101db575f5ffd5b506100d460015481565b3480156101f0575f5ffd5b506102046101ff366004610639565b61051d565b005b5f5f6102106103cf565b90507f00000000000000000000000000000000000000000000000000000000000000008110610240575f91505090565b5f61026b827f0000000000000000000000000000000000000000000000000000000000000000610664565b90507f0000000000000000000000000000000000000000000000000000000000000000600161029a828461067d565b6102a49190610664565b6102ae9190610690565b9250505090565b5f5f6102bf6103cf565b90508215806102ce5750808311155b156102db57505f92915050565b7f000000000000000000000000000000000000000000000000000000000000000083111561030c57505f1992915050565b5f6103178285610664565b90507f00000000000000000000000000000000000000000000000000000000000000006001610346828461067d565b6103509190610664565b61035a9190610690565b949350505050565b5f5f5f61036d6103cf565b915083158061037b57508184115b806103a557507f000000000000000000000000000000000000000000000000000000000000000084115b156103b457505f9150806103c8565b6001826103c18682610664565b9250925092505b9193909250565b5f7f00000000000000000000000000000000000000000000000000000000000000005f541061041d57507f000000000000000000000000000000000000000000000000000000000000000090565b5f6001544261042c9190610664565b9050805f0361043c5750505f5490565b5f8054610469907f0000000000000000000000000000000000000000000000000000000000000000610664565b90505f7f00000000000000000000000000000000000000000000000000000000000000006001610499828561067d565b6104a39190610664565b6104ad9190610690565b90508083106104df577f0000000000000000000000000000000000000000000000000000000000000000935050505090565b6105097f0000000000000000000000000000000000000000000000000000000000000000846106af565b5f54610515919061067d565b935050505090565b805f0361053d5760405163162908e360e11b815260040160405180910390fd5b7f00000000000000000000000000000000000000000000000000000000000000008111156105ac57604051635f99294f60e01b8152600481018290527f000000000000000000000000000000000000000000000000000000000000000060248201526044015b60405180910390fd5b5f6105b56103cf565b9050808211156105e2576040516340df7ba960e01b815260048101839052602481018290526044016105a3565b6105ec8282610664565b5f8190554260015560405133917f845b076c0ba6f348bd356155eda774a6b10abd474c0860c7d2355208927dd50e9161062d91868252602082015260400190565b60405180910390a25050565b5f60208284031215610649575f5ffd5b5035919050565b634e487b7160e01b5f52601160045260245ffd5b8181038181111561067757610677610650565b92915050565b8082018082111561067757610677610650565b5f826106aa57634e487b7160e01b5f52601260045260245ffd5b500490565b80820281158282048414176106775761067761065056fea2646970667358221220aa12661b86fb5029b08fa2a639cea8f3d86ebf1ab4b0cce5dcdb994b342d813c64736f6c634300081e0033",
  "contractName": "TokenBucketRateLimiter",
  "sourceName": "contracts/TokenBucketRateLimiter.sol",
  "transactionHash": "0xb5b72050e92d033e8424bc4d1ee71566c7c8088b325c5e2a1de4f128a702a48e"
}